:020000041000EA
:1000000000B5324B212058609868022188439860DF
:10001000D860186158612E4B002199600221596106
:100020000121F02299502B49196001219960352056
:1000300000F044F80222904214D00621196600F024
:1000400034F8196E01211966002018661A6600F04E
:100050002CF8196E196E196E052000F02FF8012189
:100060000842F9D1002199601B49196000215960AB
:100070001A491B48016001219960EB211966A021F2
:10008000196600F012F800219960164914480160C1
:100090000121996001BC002800D000471248134993
:1000A000086003C880F30888084703B5996A0420EC
:1000B0000142FBD001200142F8D103BD02B5186610
:1000C0001866FFF7F2FF186E186E02BD00000240BE
:1000D000000000180000070000035F00212200005C
:1000E000F4000018222000A00001001008ED00E03C
:1000F00000000000000000000000000074B24E7A12
:1001000000200420F7010010C3010010C5010010F9
:10011000C1010010C1010010C1010010C101001097
:10012000C1010010C1010010C1010010C701001081
:10013000C1010010C1010010C9010010CB01001065
:10014000CD010010CD010010CD010010CD01001037
:10015000CD010010CD010010CD010010CD01001027
:10016000CD010010CD010010CD010010CD01001017
:10017000CD010010CD010010CD010010CD01001007
:10018000CD010010CD010010CD010010CD010010F7
:10019000CD010010CD010010CD010010CD010010E7
:1001A000CD010010CD010010CD010010CD010010D7
:1001B000CD010010CD010010CD010010CD010010C7
:1001C00000BE00BE00BE00BE00BE00BEEFF3058054
:1001D000103800BEF2EB887194540510B854051025
:1001E0003402001090A31AE700201F49086006C8D7
:1001F00081F3088810471D48006800282FD10DA4FE
:100200000ECC002902D000F012F8F9E71849194A7B
:10021000002000E001C19142FCD1174988471749ED
:1002200088471749884700BEFDE701C901C29A42C5
:10023000FBD37047B8540510C00000208013002085
:10024000786705100000042000000420786705107E
:10025000001004200010042000000000704709482E
:1002600005F0ACFA0047000008ED00E0000000D007
:10027000A013002060E300202D4500102905001088
:10028000E94400105756000006005250ABB36053CB
:100290009493011006005250861C0302A49301108F
:1002A000060052505422A29DB093011005005250F6
:1002B000DE65F46878670510F8B5C04610B5064CE1
:1002C0002378002B07D1054B002B02D0044800E017
:1002D00000BF0123237010BDF815002000000000AE
:1002E000E87E0110044B10B5002B03D003490448ED
:1002F00000E000BF10BDC04600000000FC1500205B
:10030000E87E011010B512F025FC002805D112F08E
:10031000EFFA0B4806F01EF806E00A4806F01AF855
:100320000DE0094806F016F8084B094A09490A4841
:1003300012F0A8FB0028F4D1084806F00BF810BD15
:10034000007F0110E87E0110187F01103075000059
:1003500004004000347F0110407F0110487F0110ED
:1003600030B5384CA544384805F0F4FF374C384DCB
:1003700002AB9C46654422682A6063686B60A06893
:1003800005F038FEA860334B02AA94466344E26845
:100390001A60314B634422691A60304B63446169CF
:1003A0001960A2695A60E2699A60226ADA600222E0
:1003B0000092284A62442900D3A801F0F1FA02AA67
:1003C00094462B68D1936B680393D293214B63447B
:1003D0001B68CF93204B63441B680393D093CDAA33
:1003E0001F4B03CB03C2FA20800003F06FFA04AC6A
:1003F000200001F0B1FB0194D09B0093CF9BD199D9
:10040000D29AD3A801F0DCFC4F222100D3A801F03E
:1004100023FCD3A801F0A6FA1249200001F096FCB3
:10042000002408E00F4BE1005A185268C9580E48E2
:1004300005F0C0FF01340D4B1B68A342F2DC0C4BEE
:100440009D4430BD246EFFFF547F011094D00020E6
:10045000C4910000BC910000C0910000AC9100006C
:10046000847F011020CA0020647F011074D0002016
:10047000DC91000010B505F0A9FF01F07FFD01F04F
:1004800099FD00F0A5F800F055F900F079F901F0B8
:10049000C9FEFFF737FF01F055FF10BD10B5002072
:1004A00000F016F900F026F9174B0021595E00F014
:1004B00037F9164B1880012000F00AF900F01AF9FC
:1004C000134B0021595E00F02BF9124B18800220CB
:1004D00000F0FEF800F00EF90F4B0021595E00F01D
:1004E0001FF90E4B1880032000F0F2F800F002F91B
:1004F0000B4B0021595E00F013F90A4B18800420C1
:1005000000F0E6F810BDC04628E3002012E300200A
:100510002AE3002014E300202CE3002016E300204F
:100520002EE3002018E3002010B5FFF7A3FF214BB6
:100530001B78002BFBD0FFF713FF00241E4B1B681A
:10054000A34207DC00231B4A13701C4A13601A4A9B
:100550001360ECE701F068F9E300194A985800F0DD
:10056000DBFF184B1B78002BF4D0164B00221A70BF
:10057000FA20400003F0AAF9FFF790FF01F054F9C8
:10058000E2000F4B9B18586805F040FC0E4A0F4BD9
:1005900005F0C7FB01F054F80A4B1B78002BEBD099
:1005A000084B00221A70FA20400003F08FF9013442
:1005B000C4E7C04644E3002074D0002070D000207F
:1005C00020CA002045E300207B14AE47E17AA43F17
:1005D00010B50B490B4808F08DFB0321002001F0FA
:1005E000E7FE0321012001F0E3FE002201210020AB
:1005F00001F0F6FE00220121012001F0F1FE10BD04
:10060000801A0600C00E002070B586B006001623C2
:100610006B440C221A8003F029FA04000D1E2DDB16
:10062000FA2292000023A4185D41002D2CDB002D3E
:100630002EDB0294039500230093023316226A44B2
:1006400036211E4808F08EFB03F010FA04000D1E40
:1006500024DBFA2292000023A4185D41002D23DB45
:10066000002D25DB02940395002300930233320012
:100670003621124808F095FB06B070BD104B114AA8
:100680003F21114803F034FF012464420F4DCEE7AF
:100690000B4B0C4A3F210C4803F02AFF084B094A38
:1006A0003F21094803F024FF01246442074DD7E7A6
:1006B000034B044A3F21044803F01AFFC00E0020F8
:1006C0008C7F01100C800110A87F0110FFFFFF7FBD
:1006D00000B585B0012383400F226A4413700023C4
:1006E000009301337021024808F030FB05B000BDD3
:1006F000C00E002010B582B06B469C1D2000FFF795
:1007000083FF0022A35E5800C3181801C01AC0005E
:10071000024905F07FF800B202B010BDFF0F0000E3
:10072000411A8BB208B20A0400D470476933FF3310
:1007300018B2FAE710B50020FFF7CAFFFFF7DAFF9B
:100740000B4B18800120FFF7C3FFFFF7D3FF094BC6
:1007500018800220FFF7BCFFFFF7CCFF064B188084
:100760000320FFF7B5FFFFF7C5FF044B188010BD4E
:1007700028E300202AE300202CE300202EE30020C1
:10078000F8B504210A2001F013FE04210B2001F02A
:100790000FFE04210C2001F00BFE04210D2001F0BE
:1007A00007FE424F05233B60414AFA200001906654
:1007B00040495167404B1C6801231D00A5433F4C35
:1007C00025603F4E06243460D067882011503D4A92
:1007D000126893433C4A13603B689A00D218930016
:1007E0003A4A944663441968394A51400904090C4D
:1007F000802464012343196039688B005B189900D9
:1008000061440868334B5840000C000421430860E1
:100810003168880040188100614408684240120431
:10082000120C21430A603268910089188A006244E0
:1008300011684B401B0C1B0422431360264D2800FB
:1008400003F044F83B689A00D21893001F4A94467C
:1008500063441968214A51400904090C2343196073
:1008600039688B005B189900614408681C4B58403C
:10087000000C0004214308603168880040188100A2
:100880006144086842401204120C21430A60326835
:10089000910089188A00624411684B401B0C1B04AC
:1008A00014432360280003F011F8F8BD9CE20020F7
:1008B000000005401027000064000540641005405A
:1008C000A0E2002078000540781005400C000540AB
:1008D0008A02000000008A02B80B0000EE0200004D
:1008E0000000EE0270B584B00D0014001E00A522B9
:1008F000520090423FD32378002B3CD0088801302F
:1009000080B20880052104F0ADFF89B200290BD028
:10091000288805F07BFA1B4A1B4B05F002FA306071
:100920007160002323702AE003F0A0F80090019189
:100930000A9B1A685B680292039300980199801AD7
:100940009941FA229200002304F0CAFF05F0A2FAAE
:1009500002000B0009990A604B600C480C4905F035
:10096000C6F905F06BFA089B18600A9B009801997C
:1009700018605960CCE71E2801D80123237004B009
:1009800070BDC0469FCC3FFA264DA33F9A999999D6
:100990009973AD4070B584B00C0016001D00A523FE
:1009A0005B00984204D34A3BFF3B137004B070BD18
:1009B0001E28FBD81378002BF8D00888013080B2AD
:1009C0000880052104F04EFF89B200290BD0208851
:1009D00005F01CFA174A184B05F0A3F92860696066
:1009E00000233370E2E703F041F8009001910A9B85
:1009F0001A685B680292039300980199801A9941E2
:100A0000FA229200002304F06BFF05F043FA020083
:100A10000B0009990A604B600848094905F067F91D
:100A200005F00CFA089B18600A9B00980199186061
:100A30005960CCE79FCC3FFA264DA33F9A999999EC
:100A40009973AD4070B514001D0003282DD010D847
:100A500001281DD0022827D11A4E0023F05E05F090
:100A6000D5F922002B0005F03DF905F0E7F93080BB
:100A70001AE0042818D1144E0023F05E05F0C6F9E0
:100A800022002B0005F02EF905F0D8F930800BE09C
:100A90000E4E0023F05E05F0B9F922002B0005F0A0
:100AA00021F905F0CBF9308070BD094E0023F05ECE
:100AB00005F0ACF922002B0005F014F905F0BEF9A1
:100AC0003080F1E722E3002026E3002020E300202D
:100AD00024E30020F0B5C64600B584B003913D4B39
:100AE0001B68C21A9046100005F090F904000D0032
:100AF0000022394B05F015F900900191374B1E6823
:100B00005F6832003B002000290005F0E6F8344A17
:100B1000344B05F006F902000B000098019905F02E
:100B2000E1F80090019122002B003000390005F01F
:100B300037F9002819D14246002A27DD0022002378
:100B4000009E019F3000390005F048F9002813D0BD
:100B5000039B584205F05AF932003B0005F0E1F8DA
:100B600002000B000120FFF76DFF1C4B1C605D6055
:100B700004B080BCB846F0BD039805F047F9009A70
:100B8000019B05F0CEF802000B00EBE7002AECDA3F
:100B900000220023009E019F3000390005F01EF95D
:100BA00000280CD0039805F031F932003B0005F025
:100BB000B8F802000B000120FFF744FFD5E7039BC4
:100BC000584205F023F9009A019B05F0AAF80200AB
:100BD0000B00F0E7FCE200200000D03F6815002089
:100BE0009A9999999999A93FF0B5C64600B584B0EC
:100BF00003913D4B1B68C21A9046100005F006F9A0
:100C000004000D000022394B05F08BF80090019193
:100C1000374B1E685F6832003B002000290005F05A
:100C20005CF8344A344B05F07CF802000B00009865
:100C3000019905F057F80090019122002B00300037
:100C4000390005F0ADF8002819D14246002A27DD09
:100C500000220023009E019F3000390005F0BEF8FD
:100C6000002813D0039B584205F0D0F832003B0017
:100C700005F057F802000B000220FFF7E3FE1C4BC3
:100C80001C605D6004B080BCB846F0BD039805F000
:100C9000BDF8009A019B05F044F802000B00EBE759
:100CA000002AECDA00220023009E019F3000390068
:100CB00005F094F800280CD0039805F0A7F832004E
:100CC0003B0005F02EF802000B000220FFF7BAFEF1
:100CD000D5E7039B584205F099F8009A019B05F06F
:100CE00020F802000B00F0E700E300200000D03FF6
:100CF000701500209A9999999999A93FF0B5C6461F
:100D000000B584B003913D4B1B68C31A9846180088
:100D100005F07CF804000D00394A3A4B05F001F863
:100D200000900191384B1E685F6832003B00200044
:100D3000290004F0D2FF354A354B04F0F2FF0200DF
:100D40000B000098019904F0CDFF00900191220062
:100D50002B003000390005F023F8002818D1434655
:100D6000002B27DD00220023009E019F3000390068
:100D700005F034F8002812D0039805F047F8320047
:100D80003B0004F0CEFF02000B000320FFF75AFEE9
:100D90001D4B1C605D6004B080BCB846F0BD039B79
:100DA000584205F033F8009A019B04F0BAFF0200A4
:100DB0000B00EAE7002BEBDA00220023009E019FE4
:100DC0003000390005F00AF800280DD0039B584286
:100DD00005F01CF832003B0004F0A3FF02000B00FA
:100DE0000320FFF72FFED3E7039805F00FF8009AD2
:100DF000019B04F096FF02000B00F1E704E30020E2
:100E0000333333333333D33F781500209A9999998C
:100E10009999A93FF0B5C64600B584B003913D4B02
:100E20001B68C21A9046100004F0F0FF04000D0089
:100E3000394A3A4B04F075FF00900191384B1E6817
:100E40005F6832003B002000290004F046FF354A6D
:100E5000354B04F066FF02000B000098019904F086
:100E600041FF0090019122002B003000390004F076
:100E700097FF002819D14246002A27DD00220023CF
:100E8000009E019F3000390004F0A8FF002813D015
:100E9000039B584204F0BAFF32003B0004F041FFCC
:100EA00002000B000420FFF7CDFD1D4B1C605D60B0
:100EB00004B080BCB846F0BD039804F0A7FF009AC8
:100EC000019B04F02EFF02000B00EBE7002AECDA96
:100ED00000220023009E019F3000390004F07EFFB5
:100EE00000280CD0039804F091FF32003B0004F07E
:100EF00018FF02000B000420FFF7A4FDD5E7039BB9
:100F0000584204F083FF009A019B04F00AFF02009C
:100F10000B00F0E708E30020333333333333D33FA0
:100F2000801500209A9999999999A93F0022002348
:100F30002A490A604B602A490A604B6029490A60C5
:100F40004B6029490A604B6000212848016028480D
:100F50000160284801602848016028480260436019
:100F600027480260436027480260436026480260C9
:100F70004360264801802648018026480180264893
:100F8000018026490A604B6025490A604B6025496B
:100F90000A604B6024490A604B6024490A604B6038
:100FA00023490A604B6023490A604B6022490A606A
:100FB0004B6022490A604B6021490A604B60002265
:100FC000002320490A604B601F490A604B601F499B
:100FD0000A604B601E490A604B607047F81400209D
:100FE000001500200815002010150020FCE200204C
:100FF00000E3002004E3002008E30020381500206F
:1010000040150020481500205015002020E3002046
:1010100022E3002024E3002026E30020181500200E
:1010200020150020B0150020B8150020C0150020A4
:101030002815002068150020701500207815002064
:10104000801500208815002090150020981500209C
:10105000A01500200B4B1A680B4B1B880B49098805
:101060005B189BB2910089188A0009498C4662443A
:1010700011684B401B041B0C802149010A4313607B
:101080007047C0469CE20020BA0D002020E30020FB
:101090000C000540144B1B88144A0021525ED218E4
:1010A00013498A421BDD13498A4203DD124AD21AD0
:1010B0000E490A80114A12680C4909885B189BB2D4
:1010C000910089188A000E498C46624411684B4091
:1010D0001B041B0C802149010A4313607047034B1A
:1010E0000F2252421A80F9E7C20D002020E30020AF
:1010F000CD020000E1020000E20200009CE20020BC
:101100000C000540134B1B88134A0021525ED21875
:1011100012498A421ADC12498A4202DCCA1A0E4972
:101120000A80104A12680C4909885B1891008918D6
:101130008A000D498C4662441B0411684B401B0C0D
:101140001B04802149010A4313607047024B0C22A3
:101150001A80FAE7BC0D002022E3002016030000ED
:10116000020300009CE200200C0005400B4B1A68B3
:101170000B4B1B880B4909885B18910089188A0062
:1011800009498C4662441B0411684B401B0C1B042C
:10119000802149010A4313607047C0469CE2002049
:1011A000C40D002022E300200C0005400B4B1A6800
:1011B0000B4B1B880B4909885B189BB2910089185F
:1011C0008A0009498C46624411684B401B041B0C81
:1011D000802149010A4313607047C046A0E2002005
:1011E000BE0D002024E300200C000540134B1B889B
:1011F000134A0021525ED21812498A421ADC12495F
:101200008A4202DCCA1A0E490A80104A12680C4946
:1012100009885B189BB2910089188A000C498C469A
:10122000624411684B401B041B0C802149010A4396
:1012300013607047024B0A221A80FAE7C60D00209D
:1012400024E3002011030000FE020000A0E20020C1
:101250000C000540134B1B88134A0021525ED21824
:1012600012498A421ADC12498A4202DCCA1A0E4921
:101270000A80104A12680C4909885B189100891885
:101280008A000D498C4662441B0411684B401B0CBC
:101290001B04802149010A4313607047024B0A2254
:1012A0001A80FAE7C00D002026E300201103000099
:1012B000FE020000A0E200200C0005400B4B1A6863
:1012C0000B4B1B880B4909885B18910089188A0011
:1012D00009498C4662441B0411684B401B0C1B04DB
:1012E000802149010A4313607047C046A0E20020F4
:1012F000C80D002026E300200C00054030B51A4C34
:1013000023689A00D2189300184A944663441968D7
:10131000174A51400904090C802040010343196019
:1013200021688B005B18990061440C68114B5C408C
:10133000240C240401430C600F4D29688C006418B0
:10134000A10061440C6862401204120C01430A605F
:101350002A68910089188A00624411684B401B0C6E
:101360001B041043036030BD9CE200200C000540CC
:10137000EE0200000000EE02A0E2002010B5FFF730
:1013800089FEFFF7BFFEFFF731FFFFF763FF10BDD8
:1013900010B5FFF77FFEFFF7E9FEFFF727FFFFF726
:1013A0008DFF10BD00B585B01A4B18881A4B0293FB
:1013B0001A4B01931A4B00931A4B1B4A1B49FFF718
:1013C000E9FA1B4B18881B4B02931B4B01931B4BD9
:1013D00000931B4B1B4A1C49FFF784FA1B4B1888D0
:1013E0001B4B02931B4B01931B4B00931B4B1C4A43
:1013F0001C49FFF7CFFA1C4B18881C4B02931C4B5F
:1014000001931C4B00931C4B1C4A1D49FFF76AFAC1
:1014100005B000BD12E3002088150020D81500207B
:10142000FCE20020F814002046E300203AE300200C
:1014300014E3002090150020E015002000E30020B8
:101440000015002047E300203CE3002016E30020C5
:1014500098150020E815002004E30020081500205E
:1014600048E300203EE3002018E30020A015002000
:10147000F015002008E300201015002049E30020AB
:1014800040E300200023002213490B8013490B8006
:1014900013490B8013490B8013490B8013490B80B0
:1014A00013490B8013490B80134B1A70134B1A709E
:1014B000134B1A70134B1A700022002312490A6052
:1014C0004B6012490A604B6011490A604B60114938
:1014D0000A604B607047C04612E3002014E300200E
:1014E00016E3002018E300203AE300203CE300204C
:1014F0003EE3002040E3002046E3002047E30020D5
:1015000048E3002049E30020A013002060150020DC
:10151000A8130020C8150020D0B50400354B36486C
:10152000364918605960B8239B00354A1380354A04
:101530001380354A35491180354A1380354B364A78
:101540001380364A1380364B364A1A80364B374A58
:101550001A80002C04DC25DB354B01221A70D0BD2B
:10156000FFF716FF0022334B33490868496804F03F
:10157000B9FB06000F00200004F048FC02000B003D
:101580003000390004F022FC0028E8D0FFF7B6FE56
:10159000FFF7CCFCFFF776FFFFF7CCF8244B0122D6
:1015A0001A70DCE7FFF756FDFFF7ACFDFFF7FEFD15
:1015B000FFF750FE0022214B1F490868496804F0DC
:1015C0008CFB06000F00200004F020FC02000B0042
:1015D0003000390004F0F2FB0028C0D0FFF78EFE87
:1015E000FFF7A4FCFFF74EFFFFF7A4F8104B012212
:1015F0001A70B4E7E00D0020C7BAB88D06F0663F58
:10160000C20D0020C40D0020C60D0020FF02000006
:10161000C80D00200A030000BA0D0020BC0D0020F8
:10162000BE0D0020DD020000C00D002006030000FA
:1016300045E3002000003440C81500200000394078
:10164000F0B5C64600B504000D005F4B5F4A1A8036
:101650005F4B604A1A80604B604A1380604A138077
:10166000604B6148614918605960002200232000E6
:10167000290004F0B3FB002802D180BCB846F0BDBD
:1016800000225B4B5B490868496804F04AFB04F0A0
:10169000D5FB8046FFF772FEFFF784FE564B1A68B3
:1016A0005B6856490868496804F01CFB544A554B6E
:1016B00004F037FB00224E4B04F033FB06000F0012
:1016C000514B1A685B6851490868496804F00AFB85
:1016D0004B4A4C4B04F025FB0022454B04F021FB08
:1016E00002000B003000390004F0FCFA0022404BED
:1016F00004F017FB06000F0002000B00444804F042
:1017000059FE32003B002000290004F057FB00285E
:1017100024D14346002B2DD043DD01213D4B1868D9
:1017200040444942FFF760FA4346D80F4044401016
:10173000394B1B68181A0121FFF7CCF90121374BEF
:1017400018684942FFF766FB354B18680121FFF71F
:10175000D5FAFFF713FEFFF725FE8EE7FFF7CEFD64
:10176000FFF7E4FBFFF78EFEFEF7E4FF2D4B0122AF
:101770001A7082E701246442264B18682100FFF7A3
:1017800033FA264B18682100FFF744FB224B1868F8
:101790000121FFF79FF9224B18680121FFF7AEFAEC
:1017A000D7E7D80F4044401001211A4B1B68C018DE
:1017B0004942FFF719FA184B18684346C01A01212D
:1017C000FFF788F9BAE7C046C20D0020DD0200002D
:1017D000BC0D00200B03000007030000C60D002015
:1017E000C00D0020E00D00202F6EA301BC05623F5C
:1017F0000000E03FC815002010150020F81400205C
:1018000039C9BDB17FB3E33F0815002000150020A2
:1018100024800110D00D0020CC0D0020D80D002018
:10182000D40D002045E30020F0B5C64600B5304990
:10183000304800F0F9FB304B1B78002B0ED02C4BBE
:101840000420185E00F0D0FC2C4B18602C4B1B6859
:10185000092B3ED1284B00221A703AE002F006F91B
:1018600006000F00274B98465C681B68C01AA14110
:1018700004F010FB0022244B04F039FA04000D00A0
:10188000224B1C605D6043461E605F60184B042065
:10189000185E002820DD194B1B68C018832103F057
:1018A000B9FF04F0B3FA02000B0019490A604B605B
:1018B0002000290004F035FA164C2268636804F011
:1018C00011FA20606160144B18605960134B186066
:1018D000596080BCB846F0BD084B1B68C01A832114
:1018E00003F098FF04F092FA02000B00DDE7C04617
:1018F000AC2B0020601A0020B80D002078D000200A
:10190000DC2F0020A815002080842E41D015002057
:10191000A813002060150020A0130020C815002087
:10192000F0B59C4602277F4216E00134022C12DCFF
:101930007D18A6181E2DF8D8002EF6DB302EF4DC0C
:101940009323DB005D43451973009E19F600AD1922
:1019500063462B75E9E70137022F02DC022464425B
:10196000E4E7F0BD70B50600002512E09323DB002C
:101970006343F3186A005219D2009B18197D074877
:1019800004F018FD01341E2CF0DD0A2004F0AEFC3A
:101990000135302D01DC0024F5E770BD40800110D9
:1019A000F0B5C64600B504008C4617001D00069B26
:1019B0009846002614E09323DB004B43E3187200A3
:1019C0009019C000C1501B185E60194A9A60DA6015
:1019D00000221A612E321A7501311E29EBDD013603
:1019E000302E01DC0021F8E7634619685A6852235B
:1019F0002000FFF795FF3A6879689323DB00534393
:101A0000E3184A005218D2009B1842221A75002788
:101A100008E0FB00EB1819685A6823232000FFF741
:101A20007FFF01374745F4DB80BCB846F0BDC046B8
:101A30009F86010010B5101A40435B1A5B43C01823
:101A400004F0E4F904F02EFA04F0F8F910BD0000F7
:101A5000F0B5D6464F464646C0B592B08046894658
:101A60001000019300231A9A13600AAC394B22002C
:101A7000190070C970C270C970C230C930C202A9E1
:101A800020330A0032CB32C232CB32C212CB12C266
:101A90000025C2464E4639E00134022C11DC002BF1
:101AA0000FD066189322D2005643AE193A189246C8
:101AB00052005244D200B218127D232AECD10023E6
:101AC000EAE78A460137022F05DC002B03D0022407
:101AD00064425146E1E701004E464046984653466F
:101AE000AA4665464246002A0FD09322D2005343AD
:101AF00053441A9A1268541C1A9F3C6094004A007E
:101B00005118C9005B18019A13510135072D1BDCD0
:101B1000AA000AABD3589B1902A951580918012BE6
:101B2000F3DD1C2BF1DC0129EFDD2E29EDDC022297
:101B30005242944603326746AC4655469A461300D5
:101B4000B14680460800BEE712B0E0BCBA46B146D6
:101B5000A846F0BD44800110C8239B000022C2505B
:101B6000704710B5C8239B00C358C72B05DC5C1C0D
:101B7000C822920084509B00195010BD002300E041
:101B80000133C822920082589A4205DD9A00125809
:101B90008A42F5D1012000E00020704710B50023F3
:101BA00000E00133C822920082589A420BDD9C006B
:101BB00024588C42F5D1013AC82189004250920044
:101BC00012589B001A5010BD70B5040000220A4D37
:101BD000002000E00132C8239B00E35893420ADD55
:101BE000930019598B68CE68B44663449D42F1DD79
:101BF0001D000800EEE770BD9F86010070B504006F
:101C00000D0004E021002800FFF7ABFF2469002C41
:101C1000F8D170BD70B50F4CA544C8239B00C558C2
:101C20006B1E002206E099000C5891006E468C5104
:101C3000013B0132002BF6DA002304E09A006946EA
:101C40005158115001339D42F8DCC8239B009D443C
:101C500070BDC046E0FCFFFF70B5002600E0013615
:101C6000C8239B00CB58B34214DDB3005B589324C8
:101C7000E4001D686C4304195D686B005B19DB00B0
:101C8000E3181B7D422BEAD06B005D19ED0064194F
:101C90002275E4E770BD0000F0B58C4601220025F6
:101CA00027E0611C37D18726764213E0611C38D1CA
:101CB00087260FE0002C36D15A2676420AE0002C07
:101CC00033D15A2606E0012C31D12D26764201E08F
:101CD000012B32D0751B1C4C2368DB006146CD50B4
:101CE0002368DD00654401276F6001332360013202
:101CF0003500C8239B00C358934224DD93001C5831
:101D0000531E9B001F58236839685B1A64687F68FC
:101D1000E41B591CC5D0002B01D1611C11D0012B33
:101D2000C4D0591CC6D0012BC9D0591CCBD0002B14
:101D3000CED1012CCCD11E00CCE7012CCAD12D264E
:101D4000C8E7B426C6E7F0BD70D0002070B5194CC6
:101D5000A5440E0002A9FFF79FFF002418E0E3004E
:101D600002A98C4663445B68D2180134AC4204DAA1
:101D7000E30002A95B58002BF1D00F490B68DB0090
:101D80000098F0500B68D8003018426001330B60A7
:101D90000A4B1D68A54209DDE10002AB9C46614487
:101DA0000822684604F0A0F9019ADEE7C923DB00A7
:101DB0009D4470BDB8F9FFFF74D0002070D00020A2
:101DC00082B0F0B5DE4657464E464546E0B5644C17
:101DD000A544834604910592624A02A98C46624456
:101DE00013609323DB00049C5C435C44059A91469A
:101DF0005600B518ED0065195A4A624412685343FB
:101E00005B449846D623DB0063441F687B00039342
:101E1000DB19DB009A46C244D9A8FFF79DFE10A843
:101E2000FFF79AFE0023AB60039BDB19DB00424601
:101E30009A584B46F318DB00185953465B6869689B
:101E4000FFF7F8FDE8602900D9A8FFF78AFED9AAB4
:101E5000C8239B00D358002B28DDD9A8FFF7B4FE78
:101E60000600824513D00100D9A8FFF797FE310084
:101E700010A8FFF776FE002307937268316807AB5E
:101E8000009308AB5846FFF7E3FD00253CE0364BD6
:101E900002AA9446634419685046FFF7AFFE324BDE
:101EA00002AA944663441868FFF7B4FE2F4B9D4482
:101EB000F0BCBB46B246A946A046F0BC08BC02B086
:101EC0001847736862689B1ADA179B185340012BF6
:101ED0002FD199462DE00022254B32E02100D9A8D0
:101EE000FFF73FFE26614B46A3607A00D319DB0063
:101EF00043445B68D219D200414652586168206859
:101F0000FFF798FDE0600135079BAB429FDDAB001A
:101F100008AA9C58210010A8FFF730FE814600282F
:101F2000F1D1336822689B1ADA179B185340012BB2
:101F3000C7D0B06803F06AFF4B46002BCBD00D4AE8
:101F40000D4B03F0CFFE03F079FF81462100D9A8A5
:101F5000FFF714FE0028C1D0A3684B45C2DCD2E7CE
:101F600074F9FFFFAC060000B40600008C06000008
:101F70000000F03FCD3B7F669EA0F63F10B50B49B9
:101F80000B4806F0B7FE0321122000F011FA0321DE
:101F9000132000F00DFA00220121122000F020FA97
:101FA00000220121132000F01BFA10BDA0860100C1
:101FB000C80E002000B587B005AB6B221A8001F077
:101FC00055FD02000B1E14DBFA20800000211218C0
:101FD0004B41002B13DB002B15DB029203930023F4
:101FE0000093023305AA68210A4806F0BBFE07B039
:101FF00000BD094B094A3F21094802F079FA012244
:102000005242084BE7E7044B044A3F21044802F0E0
:102010006FFAC046C80E00208C7F0110848001102A
:10202000A87F0110FFFFFF7F70B588B005000E008C
:1020300017236B443B221A7001F018FD02000B1E9F
:1020400000DA87E0FA208000002112184B41002BB3
:1020500000DA85E0002B00DA86E002920393002389
:102060000093013317226A4468215A4806F07AFE29
:1020700001F0FCFC02000B1E00DA7BE0FA2080007D
:10208000002112184B41002B00DA79E0002B00DA16
:102090007AE006AC029203930023009306332200F9
:1020A00068214C4806F07DFE2278120263781343C3
:1020B0002B80A2781202E37813436B8022791202FC
:1020C00063791343AB8017236B4443221A7001F0EA
:1020D000CDFC02000B1E5DDBFA20800000211218EF
:1020E0004B41002B5CDB002B5EDB02920393002351
:1020F0000093013317226A446821364806F032FE05
:1021000001F0B4FC02000B1E54DBFA208000002119
:1021100012184B41002B53DB002B55DB06AC02920F
:10212000039300230093063322006821294806F018
:1021300038FE22781202637813433380A2781202A9
:10214000E378134373802279120263791343B380D7
:1021500008B070BD204B214A3F21214802F0C8F948
:10216000012252421F4B75E71B4B1C4A3F211C4862
:1021700002F0BEF9184B194A3F21194802F0B8F98C
:1021800001225242174B81E7134B144A3F21144856
:1021900002F0AEF9104B114A3F21114802F0A8F9A4
:1021A000012252420F4B9EE70B4B0C4A3F210C4839
:1021B00002F09EF9084B094A3F21094802F098F9BC
:1021C00001225242074BA7E7034B044A3F21044830
:1021D00002F08EF9C80E00208C7F0110848001105F
:1021E000A87F0110FFFFFF7FF8B503000A4D2868A4
:1021F0000A4986000A4A14687758E41B1460E418F8
:102200001460735001300A2103F004FB29600A2195
:10221000200003F0FFFAF8BDDC2F0020B42B0020D3
:10222000ACE2002010B5022000F086F9D02424068C
:1022300004236362032000F07FF908236362042112
:10224000042000F0B5F8054BFF229A63044B1A688E
:1022500001239343034A136010BDC04600000540AC
:10226000280005402810054010B5002903D1044876
:1022700004F070F810BD034804F06CF8FAE7C046AB
:102280009C800110B480011010B582B00400002AB7
:1022900016D10E4804F05EF8012301930023009349
:1022A0000B4B00220B49200015F0E0F8002803D169
:1022B000094804F04FF806E0084804F04BF802E043
:1022C000074804F047F802B010BDC046CC800110AA
:1022D00069220010E8800110FC80011020810110AB
:1022E0004081011010B5024804F064F810BDC046EA
:1022F0005881011010B5C0B080225200684615F018
:1023000029FCFF2300226946CA540B49684615F090
:1023100057FC002409E015F02FFBA300074AD0501A
:1023200001340549002015F04BFC0028F3D1044B83
:1023300001221A7040B010BD9881011094D0002085
:1023400044E3002030B58BB015F042F9041E1AD0DA
:10235000104B029303AD1C220021280003F0BEFEA7
:102360000D4B039300230D4A0D49200015F024F96D
:102370000195002300930B4B0B4A02A9200015F096
:102380002FF9002801D10BB030BD084803F0E2FF5F
:10239000F9E7C0465B795D5E9C810110F522001073
:1023A000E5220010892200105B070000AC810110BB
:1023B00010B58300084A944663441C68402262407A
:1023C000C02414408022520113431C60C000034B00
:1023D0009C466044416010BD04C001400040014083
:1023E00080000B4B9C46604400290DD00823002A36
:1023F0000CD004221343026853400C221340802265
:1024000052011043036070470023F0E70022F1E718
:1024100004C00140002909D08000094B9C4660445B
:1024200080239B0118430223036070478000044B04
:102430009C466044C0239B01184302230360F4E7D9
:1024400004C0014070B5D0231B061B689D00094CD9
:102450002C59204207D19B002043064C18510D20D7
:1024600000F0F2F970BD044B044ACC21044802F09C
:102470003FF8C04674E00020BC8101109482011036
:10248000E881011010B50400D0231B061B689B00D7
:102490000A4A9B5818420BD00D2000F0EFFAD023C7
:1024A0001B061B6805499B005A58A2435A5010BD91
:1024B000034B044AD621044802F01AF874E00020C5
:1024C0004482011070820110E8810110072303404B
:1024D0009B00C00899403C308000014BC1507047C0
:1024E00000400140F8B507000C0016001D00FFF782
:1024F000EDFFFB089B00ED1807203840800084406A
:10250000002E04D080239B011D432C60F8BDC02306
:102510009B011D432C60F9E710B5D0231B061B68F7
:10252000002B03D0024BFFF7DDFF10BD014BFAE794
:10253000304101400041014010B501238340D022C9
:102540001206936293610521FFF732FF10BD000070
:10255000034B1B6802201840431E9841C0B27047CD
:1025600000C00640EFF3108072B6034B1B68002BCF
:10257000FBD0BFF35F8F70472C0100D0BFF35F8F9C
:10258000024B00221A6080F3108870472C0100D0A3
:10259000F8B506000C001500FFF7E4FFE308F71894
:1025A000F15C07222240012393400B4205D1DBB2AC
:1025B0000B433B70FFF7E2FFF8BD2100280002F05B
:1025C00031F8F0B583B00600019114001F00FFF749
:1025D000C9FF00E00134BC420CD8E308F518F35CF5
:1025E0000721214001228A401A42F3D1D2B21A4374
:1025F0002A7001E001246442FFF7C0FF002C02DBD7
:10260000200003B0F0BD019B002BF9D0089802F028
:1026100009F8000070B505000C00FFF7A3FFE30800
:10262000EE18EA5C07210C400123A340134204D0BA
:102630009A433270FFF7A2FF70BD034B034A2C315F
:10264000034801F055FFC046C882011048830110BD
:10265000E8820110002307E0054A9A189200BFF3B0
:102660005F8F0021116001331F2BF5D97047C046E1
:1026700040000034054A1078431CDBB21370172B5E
:1026800002D9130010221A707047C046E80D0020CE
:1026900000B583B00100044B00931F2318220348A8
:1026A000FFF78FFF03B000BD588301109C1C002072
:1026B000074B9B68103080001950BFF35F8FBFF34A
:1026C0005F8F044B0021196082F310887047C04669
:1026D00000ED00E0240100D01F23181A704700000D
:1026E00010B5091A081F0A4B9C466144094A9142D9
:1026F00008D8C30706D440104005400D064B1843C8
:1027000080B210BD054B064AA321064801F0F0FE39
:10271000FC070000FE0F000000E0FFFF74830110C3
:1027200000860110A483011010B5091A04394C0861
:10273000090B08D14905490D064A11430180064B92
:102740002343438010BD054B054AAB21054801F0EA
:10275000CFFEC04600F0FFFF00F8FFFF008401102D
:10276000D4850110A483011001238340034A10681B
:102770001840431E9841C0B27047C04600E100E0D7
:10278000002904D0034B1860034B18607047034BBB
:102790001860FBE780E200E000E100E080E100E09B
:1027A00010B5012383401800FFF7EAFF10BD0000B9
:1027B00001238340014A13607047C04600E200E0F5
:1027C000024B9B6810308000C058704700ED00E05D
:1027D00010B5FFF7F5FF002805D0054BC01A2F28CC
:1027E00003D8012010BD0020FCE70020FAE7C04616
:1027F000EC0D002070B504000D00EFF3108672B6EA
:102800000C4B1B68002BFBD0BFF35F8F2000FFF742
:10281000D7FF094B984201D0A84205D132002900C8
:102820002000FFF745FF70BD044B054A862105488F
:1028300001F05EFE240100D0CD01001010840110D3
:1028400034860110A4830110F0B5DE4657464E468B
:102850004546E0B589B0814601911500EFF3108A35
:1028600072B6744B1B68002BFBD0BFF35F8F724BAB
:102870000027DF57002F40DB7C00E419A4006F48DD
:1028800024180622A2566C4B1A706D4B9A684B4660
:1028900010339B00D35898461E001B1A2F2B38D993
:1028A000684B98452FD105AE674B33807B009B4624
:1028B000D8198000614B9846404402306349FFF7C5
:1028C0000FFF7080624BB380FF23B371F571019BE2
:1028D00007935F44BF0047440ECE0EC701231C433D
:1028E000A046524641464846FFF7E2FE09B0F0BC1A
:1028F000BB46B246A946A046F0BD564B564AD72124
:10290000564801F0F5FD564B534ADE21534801F07D
:10291000EFFDC04340440C2102F0A4FF002912D176
:1029200001239E43B34633000026DA79AA4211D927
:102930000621595600290CDB4A00521892001E004D
:102940003E4B9B18F1E7474B434AEA21434801F0CD
:10295000CFFD1E00002E3AD005AB434A1A80813AC3
:102960005A800623F3560293002B17DA3F4805AB33
:102970009B469880029A9A71DD71019A0792301DE8
:102980002100FFF7ADFEB080B7717B00DB199B0023
:102990002A4FFF185B4607CB07C7A2E77800C0198C
:1029A0008000264BC0180430321DB388D90A1C2978
:1029B00007D15B055915023149005118FFF790FE08
:1029C000D5E72B4B2B4AB121244801F091FD05AEF0
:1029D0001D4B33807B000293D8198000174A904624
:1029E000020042440392901C1849FFF779FE708060
:1029F000039A101D5946FFF773FEB0801E4B5A46CE
:102A00004146521A524153431B0DB371F571019A5D
:102A10000792029B9C466744BF0047440ECE0EC7F8
:102A2000114B5A461380813B538001231C43A0461F
:102A300057E7C046240100D053E30020EC0D0020EE
:102A400000ED00E0CD01001000A1FFFF1C0E0020F2
:102A500001BDFFFF488401101C860110A4830110F2
:102A600070840110988401100148000001BD00002D
:102A70000C8501100C860110AAAA0000F0B5CE4604
:102A8000474680B583B006000D00EFF3108872B69C
:102A9000564B1B68002BFBD0BFF35F8F544B9A68DB
:102AA00034001034A300D758524B9F4207D0AF4296
:102AB00000D198E00197504BFB1A2F2B09D94246C1
:102AC00039003000FFF7F4FD03B0C0BCB946B04692
:102AD000F0BD3000FFF748FE814600213000FFF7CF
:102AE0005FFEBFF35F8FEFF30581002901D08C42B9
:102AF00011D10123019C9C430022A368AB4212D058
:102B00000622A256002A0DDB53009B189B002200D0
:102B1000394CE418F1E73621384B394AFF3139484E
:102B200001F0E6FC2200AB4256D106256557002D88
:102B300038DB6B005B199A002F4B9B189A68A260D8
:102B4000DA79E27106229A56A2719B795BB2002B68
:102B50000FDA2D48A0806B005B199B00264AD31822
:102B60002A4A11789971157049463000FFF718FE0E
:102B7000A5E7201D6B005B199B001F4A9B181A1DBF
:102B80009B88D90A1C2907D15B055B1502335900C4
:102B90005118FFF7A5FDDDE71D4B1E4AB12119486D
:102BA00001F0A6FC002912D1002A0ED0FF23937158
:102BB000194B9380154A1378A371184B0E49641A68
:102BC000644163431B0D1370CEE70A4FF2E7201DEB
:102BD0001349FFF7A9FDC7E76A21124B084AFF31E5
:102BE000084801F085FC034F69E7C046240100D086
:102BF00000ED00E0CD010010EC0D00202485011057
:102C0000EC850110A483011001BD000053E30020F6
:102C10000C8501100C86011001BDFFFFAAAA00005F
:102C2000260E00205885011010B5032304009C4394
:102C3000064A9446644422681840C000FC3383402E
:102C40009A43130081400B43236010BD00E400E071
:102C500070B5012101432E4BCB1A2F2B28D8EFF34F
:102C60000583002B2BD0EFF3108C72B6294A126823
:102C7000002AFBD0BFF35F8F274A0400244D641B5A
:102C800064416243120D54B2244A92689B00D258A8
:102C90008A421BD00022032A32D853009B189B0083
:102CA0001B49CB189B795BB2A3421FD00132F2E7DC
:102CB000C7211B4B1B4A49001B4801F019FC9221FC
:102CC0001A4B184AFF31184801F012FC134A926857
:102CD0001749D150174B1A7882711C70BFF35F8F60
:102CE0000C4B00221A608CF3108870BD0D0053004D
:102CF000991889006918FF268E710F4A8A80E9E7C2
:102D0000D1210E4B074A4900074801F0F1FBC046AC
:102D1000EC0D0020240100D0AAAA000000ED00E084
:102D200060850110B8850110A48301108885011009
:102D3000CD01001053E3002001BDFFFF9485011079
:102D40000022044B02E0044902C30132072AFAD9E7
:102D50007047C04600E400E08080808010B5FFF737
:102D6000BBFC01000148FFF755FC10BD5FE30020EC
:102D700000B583B00100064B0093052300220548EF
:102D8000FFF71FFC002801DB1F23181A03B000BD4A
:102D90009C8501105FE3002070B504000E00150053
:102DA000FFF768FC0100200000F006F8A680E5802F
:102DB000BFF35F8F70BD0000024B9C4661448900E9
:102DC000016070474000003410B50400FFF752FC6A
:102DD00001002000FFF7F0FFFF232371BFF35F8F97
:102DE00010BD10B50400FFF745FC01002000FFF7FF
:102DF000E3FFFF23237100236371BFF35F8F10BDD7
:102E0000034B9C46614489000160BFF35F8F7047AC
:102E10004000003410B504000120FFF739FC010028
:102E20002000FFF7EDFF10BD70B505000C00080095
:102E300000F0F8FE0949200000F038FEFFF71AFC08
:102E4000074B9C466044800068602C75D0231B06AD
:102E50001B786B75A400034BE55070BD6D310010FD
:102E60004000003484D000200A4B1A68EFF3108130
:102E700072B61368002BFCD0BFF35F8F054B1B6845
:102E8000BFF35F8F00221A6081F3108840BF0020DB
:102E90000021704798E2002010B5002922D0036875
:102EA0001B7B99421ED8174B9C46614409018368DD
:102EB0009C4661440C684968002A19D003681B7B52
:102EC0009A4215D883680F488446624412019A18C2
:102ED00010685368020001208B4201D80ED00020F8
:102EE000C0B210BD084B094A3C21094801F000FB63
:102EF000054B064A3C21064801F0FAFAA242EFD8F7
:102F0000EDE7C046FFFFFF0FF0870110708A011048
:102F10009C87011010B500291ED0037B99421BD855
:102F20004B005B18033B0468A4466344002919D096
:102F3000002A1DD0914221D0002A25D0047BA24234
:102F400022D804685000801803382018817019783E
:102F500000291FD11A7010BD104B114A6821114869
:102F600001F0C6FA104B114A6F310E4801F0C0FA59
:102F70000F4B0E4A70210B4801F0BAFA0D4B0B4A69
:102F80007121084801F0B4FA044B054A682105484C
:102F900001F0AEFA41701A70DDE7C04614880110E6
:102FA000DC8A01103088011098880110B88A01105D
:102FB000A4880110B088011070B506000D0014003F
:102FC000002914D0002A14D080687368984700281C
:102FD00006D0220029003000FFF79CFF280007E000
:102FE0002A0021003000FFF795FF200000E01000CC
:102FF00070BD0800FCE70000F0B583B0050000924A
:1030000001930AAB1C780BAB1F78002C26D0036809
:103010005A7B944207D10123002B19D1002C3BD1BC
:10302000200003B0F0BD002C0CD01A7B944209D8CC
:103030001A6863001B19033BD3189B78002BEBD055
:103040000123E9E73E4B3F4A68213F4801F050FA2F
:103050003E4B3F4A67213F4801F04AFA03689C7B98
:10306000002CDBD012D01A7B94420FD862001219C8
:10307000033A19688C46624451789973002900D14B
:10308000D9730023937053701370C7E72C4B2D4AEC
:1030900068212D4801F02CFA002C3AD02B681B7BBC
:1030A0009C4236D82C4BE3181B01AA689446634413
:1030B000009A1A60019A5A60089A9A60099ADA602E
:1030C0002E68002C2BD030D0337B9C422DD863004F
:1030D0001B19033B32689446634400229A705A706D
:1030E0001A70717B22003000FFF766FF7073844214
:1030F00000D095E7287D009A019B00F01FFD061E79
:1031000001D0002F17D00C9B002B00D188E71E7038
:1031100086E7124B124A3C210E4801F0E9F9114BA7
:10312000114AA521084801F0E3F9054B054A682139
:10313000054801F0DDF92868210000F037FFE2E7DB
:1031400014880110DC8A011030880110C888011031
:10315000E88A01109C870110FFFFFF0FF087011024
:10316000708A011098870110CC8A0110F0B5DE46F4
:1031700057464E464546E0B58BB00990002308936C
:103180008200B54BD658370052E0B44BB44A3F21C9
:10319000B44801F0ADF9B44BB44A3C21B44801F055
:1031A000A7F9002901D1002869D10021404600F08B
:1031B000F3FEA04219D12A686B6806920793AB68A8
:1031C0009846EB689A464346002B14D0002C18D042
:1031D0003B681B7B9C4214D8631EFA68D35C08933F
:1031E0001B0218433861002015E0A24BA24A8E2131
:1031F0009F4801F07DF9A14B9F4A92219C4801F024
:1032000077F9994B9E4A4121994801F071F90023C1
:103210009A46984600207B68BFF35F8F00221A60B1
:1032200086F310884346002B32D1002800D10CE1F0
:1032300000F01CFC02000B1EA7DB00200021069002
:1032400007917868EFF3108672B601680029FCD008
:10325000BFF35F8F396888464C7B002CD7D09AD05B
:10326000097B8C4297D8874965182D01B9688C462F
:10327000654428686968801A9941002991DD2A68A7
:103280006B68099800F05AFC00239A469846C2E7FA
:10329000089B1B022343994651461800C04705006E
:1032A0000E007A68EFF3108B72B6136859424B41E7
:1032B000D9B2002BF9D1BFF35F8F002E1EDB002E99
:1032C00046DD3B69002B47D04B456DD100F0CEFB6E
:1032D00002000B1E6EDB52197341002B70DB002BBA
:1032E00072DB002104910131039102945146019156
:1032F000414600913800FFF77FFE4CE03B69002B10
:10330000DDD04B4514D1069A079B521BB341002BCD
:1033100014DB002B16DB0021049101310391029490
:1033200051460191414600913800FFF765FE32E0B9
:10333000554B514AA1214E4801F0DAF80122524280
:10334000524BE6E7454B464A3F21464801F0D0F84C
:10335000002E01D1002DB4D13B68002C50D05A7BF7
:10336000944237D1012100294AD1DA7B002A4DD17C
:103370009A7B002A03D1DA7B002A5AD19C73DC7332
:10338000002C5CD03B681B7B9C4258D8FA68013CFF
:10339000135D0133135500233B617A68BFF35F8FE0
:1033A00013608BF3108843E7374B334AA42130482E
:1033B00001F09EF8294B2A4A3F212A4801F098F84B
:1033C00001225242314B8AE7244B254A3F212548AE
:1033D00001F08EF8002C0DD01A7B94420AD86200BE
:1033E0001219033A1868844662449278002ABAD0C7
:1033F0000121B8E7264B274A6821274801F078F8D1
:10340000264B274AF621244801F072F8002A0AD0F8
:10341000197B8A4207D851008A18033A19688C46EA
:1034200062445470A4E71A4B1A4A68211A4801F002
:103430005FF81C4B1A4AFB21174801F059F80A4B58
:103440000F4A41210A4801F053F80BB0F0BCBB46CB
:10345000B246A946A046F0BD84D000208C7F011062
:103460003C8A0110A87F0110F0870110708A0110BA
:103470009C870110F0880110548A011008890110FE
:10348000948A0110FFFFFF0F14890110FFFFFF7FD7
:1034900014880110DC8A0110308801105089011055
:1034A000A88A01107489011010B50C4B5B68002BC1
:1034B00004D00A210A48FFF77FFC10BD074C230007
:1034C000084A1021206800F077FC032000F0C2FABF
:1034D00003212000FFF7A8FCEBE7C046340E0020D4
:1034E00098E20020992E001010B5064B5B68002B67
:1034F00001D0044810BD044B044A5E21044800F08A
:10350000F7FFC046340E0020888901107C8A011024
:103510009C870110F0B5DE4657464E464546E0B55D
:103520008BB0804616001F00149B9A46159B994647
:1035300016AB1B789B461F2302AA944663440022C5
:103540001A702BE0002809D042461268127B904284
:1035500004D8421E4146C9688A5C41E0404B414A5A
:103560004121414800F0C4FF07984CE0361BAF41B1
:10357000002F07DB002F11DA3C4B3D4A3F213D482D
:1035800000F0B6FF012676423B4FF3E7374B384A4F
:103590003F21384800F0ACFF002F4FDB43465A680C
:1035A000EFF3108472B6136859424B41D9B20791B8
:1035B000002BF8D1BFF35F8F1F3302AA94466344F8
:1035C00004930023039302934B46019353460093C5
:1035D00032003B004046FFF70FFD031EB2D1020050
:1035E00041464968BFF35F8F00250D6084F3108862
:1035F000002B29D01F2302A98C4663441B78002B83
:10360000B2D112021043002B20D05B46002B1DD0FC
:103610004946D04704000D0003000B431DD000298C
:10362000A4DB00F023FA06000F1EAFDB36196F4152
:10363000002FB1DA012676420F4FADE70B4B0C4A53
:103640003F210C4800F054FF012040420BB0F0BC79
:10365000BB46B246A946A046F0BD0798F6E7C0466D
:10366000F0870110948A01109C8701108C7F011053
:103670003C8A0110A87F0110FFFFFF7FF8B504000E
:10368000002900D162E04268EFF3108572B613683A
:1036900058424341D8B2002BF9D1BFF35F8FCBB270
:1036A0002268567BB3421BD10120002848D02069F4
:1036B00088422BD0090AC9B2002B2ED02068007B8B
:1036C00083422AD8581EE668305C88422BD00020FE
:1036D0006368BFF35F8F00221A6085F31088F8BD1E
:1036E000002B0DD0167BB3420AD85E00F618033EBD
:1036F0001768BC466644B678002ED6D00120D4E7C1
:10370000134B144A6821144800F0F2FE2C21134B8D
:10371000134AFF31134800F0EBFE134B134A4121CB
:10372000104800F0E5FE1900100000F03FFC0028F2
:10373000CED199210E4B0A4A49000A4800F0D8FE22
:1037400023698B42C4D100232361C1E70020C6E76F
:1037500014880110DC8A011030880110AC89011036
:10376000248A01109C870110F0870110948A0110AF
:10377000D0890110407D7047F0B587B006000F007A
:10378000EFF30583002B1FD106246442E517A4192B
:103790007D418D4202D803D1844201D90024002505
:1037A000002D14DB0494059500F060F902000B1E57
:1037B00013DBA41A9D41002D17DC14D03000390012
:1037C00000F060F907B0F0BD234800F02BFF234B59
:1037D000234A3F21234800F08BFE204B204A3F2103
:1037E000204800F085FE002CE8D0FFF77DFE002386
:1037F000029301931C4B0093049A059BFFF78AFEEA
:10380000002818DADAE7002300E00023002BD5D1E6
:10381000164B1A68EFF3108172B61368002BFCD0B8
:10382000BFF35F8F114B1B68BFF35F8F00221A60DD
:1038300081F3108820BF0499059A0D4B5B6A9A4268
:10384000E3D80B48806A884203D29A42DBD0012336
:10385000DCE70123DAE7C046D48901108C7F011030
:103860003C8A0110A87F0110692E001098E2002008
:103870000040054070B504000D0000F0F7F80200AC
:103880000B1E0ADB200029008018594100290ADBA1
:1038900000290CDBFFF770FF70BD084B084A3F2181
:1038A000084800F025FE012040420749F0E7034B9D
:1038B000034A3F21034800F01BFEC0468C7F0110E5
:1038C0003C8A0110A87F0110FFFFFF7F10B5FA228C
:1038D00092000023002102F073FBFFF7CBFF10BD25
:1038E00070B584B005000C00EFF30583002B1ED1EA
:1038F000FFF7FAFD002302930193224B00932A0065
:103900002300FFF707FE061E23DD20BFFFF7ECFDB7
:103910003100FFF7B3FE1C4B5B6A9C422DD81A4A5C
:10392000926AAA422CD29C4225D0012026E0164B56
:103930005B6A994209D8144A926A824207D2994234
:1039400001D001201AE0002018E0002016E001203C
:1039500014E00D4B5B6A9C4209D80B4A926AAA425A
:1039600007D29C4201D0012008E0002006E00020A0
:1039700004E0012002E0002000E0002004B070BD5F
:103980000120FBE7692E00100040054002684368F3
:103990000849496A8B4209D80648806A904207D292
:1039A0008B4201D0012002E0002000E0002070479F
:1039B0000120FCE70040054002604360004870477A
:1039C0008D39001070B5EFF305801038EFF3108CCF
:1039D00072B61A4B1B68002BFBD0BFF35F8F01221E
:1039E0001300834016494B6316490B60164909784A
:1039F0000C00C440224214D0114A546A8200134D74
:103A00005259944206D38200114C125999430E4BDD
:103A1000197007E00A4A031D9B009958995000222B
:103A200000E00022BFF35F8F044B002119608CF38C
:103A30001088002A00D0904770BDC046280100D0F1
:103A4000004005403C7005405EE30020B0E20020ED
:103A50006C1A002010B50100024A0348FEF798FDD9
:103A600010BDC046088B01104DE30020044B5B6A7B
:103A7000034A906A1900536A9942F9D17047C046C7
:103A800000400540084B5B6A01E0074B5B6A8B42D4
:103A9000FBD301E0044B5B6A8B4203D1024B9B6A70
:103AA0008342F7D37047C0460040054070B504001C
:103AB0000D00EFF3108672B61B4B1B68002BFBD07A
:103AC000BFF35F8F002D1CD02000FEF779FE174B4F
:103AD00083420BD019002000FEF78CFE012120004C
:103AE000FEF75EFE0123A340114A1360A400114BB0
:103AF000E550BFF35F8F0C4B00221A6086F31088ED
:103B000070BDA2000B4B0021D1500122A2400A49F6
:103B10000B7893430B7005492000FEF7AFFF00219F
:103B20002000FEF73DFEE4E7280100D0C539001073
:103B3000386005406C1A00205EE30020F0B5DE46D8
:103B400000B584B00400150001921E000293FFF737
:103B50008DFF03958E4202D84ED185424CD9EFF3AA
:103B6000108B72B6274B1B68002BFBD0BFF35F8F07
:103B7000254A17780125A540EBB23B431370234B30
:103B80005D63221D92000199D150A2002049029844
:103B900050501B6A2B4212D11C4B1B6C2B4208D07D
:103BA0000020BFF35F8F174B00221A608BF3108841
:103BB00023E0184B184AC521184800F099FCFFF77C
:103BC00055FF8E4214D802D1039B834210D80E4B6E
:103BD0001B78BB420ED00D4B1D625D631F2004405D
:103BE0000123A3400E4A1360074B1F701E38D8E70D
:103BF0000020D6E70120D4E7012004B080BCBB46FA
:103C0000F0BDC046280100D05EE300200040054022
:103C1000B0E200202C8B0110B08B0110508B0110F2
:103C200080E200E0EFF3108C72B60B4B1B68002BA8
:103C3000FBD0BFF35F8F01238340084A136208491A
:103C40000A789A430A70BFF35F8F034B00221A6011
:103C50008CF310887047C046280100D00040054012
:103C60005EE3002010B500291ED0037B99421BD8CB
:103C70004B005B18033B0468A4466344002919D039
:103C8000002A1DD0914221D0002A25D0047BA242D7
:103C900022D80468500080180338201881701978E1
:103CA00000291FD11A7010BD104B114A682111480C
:103CB00000F01EFC104B114A6F310E4800F018FC4A
:103CC0000F4B0E4A70210B4800F012FC0D4B0B4AB3
:103CD0007121084800F00CFC044B054A6821054896
:103CE00000F006FC41701A70DDE7C0461488011030
:103CF000D48C01103088011098880110C08C0110FC
:103D0000A4880110B088011070B506000D001400E1
:103D1000002914D0002A14D08068736898470028BE
:103D200006D0220029003000FFF79CFF280007E0A2
:103D30002A0021003000FFF795FF200000E010006E
:103D400070BD0800FCE7000010B500234373013389
:103D50008373037BC3730123027B9A4214D9002B24
:103D60000CD0027B934209D85A00D218033A01685A
:103D70008C4662440133DBB25370EDE70B4B0C4AC7
:103D800068210C4800F0B4FB002A09D0924207D801
:103D9000016853009A18033A8A180023537010BD23
:103DA000024B034A6821034800F0A2FB148801106B
:103DB000D48C01103088011010B50173426083600B
:103DC000FFF7C2FF10BD000070B50400081E00D14F
:103DD00070BD002934D0237B994231D84B005B1849
:103DE000033B2268944663445A78002AF0D02DD0D1
:103DF000237B9A422AD853009B18033B21688C46A8
:103E000063445D7800215970002825D0237B9842B7
:103E100022D843001B18033B21688C4663440021D1
:103E2000597001002000FFF76FFF060029002000F5
:103E3000FFF7CAFF020031002000FFF765FFC7E768
:103E4000084B094A6821094800F052FB054B064A15
:103E50006821064800F04CFB024B034A68210348E6
:103E600000F046FB14880110D48C0110308801103A
:103E700070B505000C00160000292FD034D0037B4C
:103E8000994231D84B005B18033B02689446634467
:103E90005A78002A2ED19A78002A31D11978FFF762
:103EA00093FF0300002E0AD0EA7B002A2ED1AA7BC2
:103EB000002A03D1EA7B002A3BD1AC73EC73002BC0
:103EC0003DD1002C4FD02B7B9C424CD82B686100FD
:103ED0000C19033C1C190023637070BD254B264A46
:103EE0003821264800F004FB254B264A6821264845
:103EF00000F0FEFA254B204A3A21204800F0F8FA5B
:103F0000234B1D4A3B211D4800F0F2FA002A0AD03B
:103F1000297B8A4207D851008A18033A29688C46BF
:103F200062445470C3E7164B164A6821164800F0E5
:103F3000DFFA184B104A4221104800F0D9FA002B42
:103F40000BD02A7B934208D843001B18033B2A68F6
:103F50009446634400229A70B3E7094B094A6821EA
:103F6000094800F0C5FA064B064A6821064800F0E9
:103F7000BFFAC046CC8B0110AC8C0110D48B011061
:103F800014880110D48C011030880110288C011085
:103F9000508C01107489011070B504000A00457B33
:103FA0002900FFF765FF6073280070BD70B504003D
:103FB000002967D0437B8B420ED0002911D0037BB0
:103FC00099420ED84B005B18033B0268D0188378E7
:103FD000002B0CD1002056E00121FFF7DDFF01206E
:103FE00051E0294B294A6821294800F081FA002B29
:103FF00020D0227B93421DD85A00D318033B22685D
:10400000D2182568EB5C8B421AD0002B1BD0227B88
:10401000934218D85A00D318033B2268D218537819
:104020008B4216D0002BF0D11A4B1B4A6B211B4838
:1040300000F05EFA144B154A6821154800F058FA52
:104040004378137007E0104B104A6821104800F0C5
:104050004FFA43785370002383704370012220008D
:10406000FFF706FF0200617B814205D02000FFF7C9
:104070004BFE6073012006E0094B074A7121074897
:1040800000F036FA002070BD14880110D48C0110A5
:104090003088011094850110948C0110D48B01108C
:1040A000748C0110F8B5DE4657464E464546E0B5DD
:1040B00005000F0092460A9A934250D31A0E914679
:1040C0001E020A9A00233000494601F009FC80468E
:1040D0006C006419A400304B9C46644463688342BE
:1040E00000D260602B1FDBB29B46012B3DD9C02361
:1040F0009B012343802212011A60AB00274A995882
:10410000002907D0506901F0ADFB431C5800C018CE
:104110000338FDD253465A0123685A40E0231A401F
:1041200080235B0123431A605A46012A28D9802341
:104130009B012343802212011A604346636042467A
:1041400000233000494601F0CBFBAD00134B585122
:104150000120F0BCBB46B246A946A046F8BD104BB4
:10416000104A3321104800F0C3F9012FBFD1C023FA
:104170009B01234303221A60A368DB07FCD5C9E730
:104180002168794003220A401A60A2680123BB40DB
:104190001342FAD0CBE7C04600800040A01C0020AC
:1041A000E08C0110548D0110F48C011030B583B0F7
:1041B0000C2000F011F9FEF7CBF900280DD00023F8
:1041C00004E099002D4A2E4888500133092BF8D974
:1041D0002A4B2C4A5A6203B030BD2B4B00229A67FF
:1041E00000F06CF9294B01221A60274B5B6C012B04
:1041F000FBD1274B03221A60234B9B6B012BFBD176
:10420000013300930433234A0121234800F054F87A
:1042100005230093214A0121214800F04DF8214B4C
:104220000093002202210420FFF73CFF1E4D009561
:104230002B00002201210520FFF734FF104C0094D1
:104240002300002200210720FFF72CFF0094230009
:10425000002200210820FFF725FF0A4B00932300CE
:10426000002200210920FFF71DFF00952B000022EE
:1042700000210620FFF716FFADE7C046A01C002076
:10428000006CDC021BB70000008000403CB0004026
:1042900030B00040002F685900800240008C8647F3
:1042A00000C00240001BB700405973078000014B5B
:1042B000C0587047A01C0020F0B5C64600B50400E9
:1042C0000E0017001D00374801F0CCFA8046364B2F
:1042D000FA18364B9A4239D80100380001F0C2FA78
:1042E0000200103A98235B009A4235D86B1E062BC9
:1042F00038D8069B013B062B34D83F09474537D3B6
:104300002D04069B1A0315432368002B36DB284B2C
:104310009C4244D080225201264B1A60264B1A60E0
:10432000264B9B6811009943FAD12660A060231D9B
:10433000C02292011A43212313602368002BFCDA68
:10434000E5600823136080BCB846F0BD1C4B1D4AD5
:1043500011211D4800F0CCF81C4B1A4A19211A48AB
:1043600000F0C6F81A4B174A1C21174800F0C0F895
:10437000184B144A2321144800F0BAF822683F234E
:104380001340B342C3D1A3681B051B0D8342BED1AA
:10439000E368EE22D2021340AB42B8D1D3E78022C9
:1043A0009201B9E7001BB70080E84BD380F8A9322F
:1043B00000C0024000E0004000F0004000C00040AB
:1043C000648D0110A48E0110C48D0110208E011087
:1043D0003C8E0110888E011080239B000343014A0C
:1043E000D362704700800540024B1A68024B5A6046
:1043F0007047C046103000200080054010B5020014
:10440000164B8020C0051860154B1648186000290F
:104410000AD0154BE021C9041960002A09D1124BBA
:10442000802212061A6010BD0C4BE021C9041960ED
:10443000F3E753019B1A9800801800010B4B18609A
:1044400080235B04984202D3084B094A1A60FFF7A5
:10445000CBFF054B8022D2051A60E4E700B005408F
:1044600008200140FCFF010000A0054010300020A2
:10447000FFFFFF0010B5030010000C4A8024E40584
:104480001460002B0DD001221343094A094CD4615A
:10449000094C5C401462516293620021FFF7AEFF49
:1044A00010BD034B0022DA61F7E7C04600B00540BB
:1044B00000800540D3C007B02D3FF84F064BAA221D
:1044C00012011A602F22DA60044B054A1A60024B6F
:1044D0005B68002BFBDA704700400240006002403E
:1044E00000B0FA0000BEFDE710B5FFF7FBFF0000CB
:1044F00010B582B00C001900002A0CD0084B002A1D
:104500000BD00192009323000200064801F052FFF5
:104510000120FFF7E7FF044BF1E7034AF1E7C0464C
:10452000B08E0110C08E01103C80011070B52B4B75
:104530002B4A1A602B4B2C4A1A602C4B9A682A4B38
:104540009343FAD12A4C01E008CC9847294B9C426E
:10455000FAD3FFF72BFE234B274A1A60234B9B68A5
:10456000DB43DB01FAD1254B40229A675A671A6771
:10457000DA66234C09E0234B234A87212348FFF7BF
:10458000B7FF2000FEF720FC0834214B9C4209D2E3
:104590002368002BF5D0012BEDD12000FEF721FC84
:1045A0000834F2E71B4CA1681B4DC022280001F023
:1045B0009BFDA560EFF30583002B00D000BEFEF746
:1045C00049F8FEF7BDFBFEF76FFF144C01E008CC85
:1045D0009847134B9C42FAD370BDC04600E00040A0
:1045E000BFCDFBFE00F00040FE7F3C0000C000405D
:1045F0006813002078130020FFFFFF0100F0014046
:1046000060130020F08E0110908F0110108F0110A8
:104610006813002000ED00E0000000207813002067
:10462000801300200FB400B583B0084801F092FE5B
:10463000049B002B07D005A90191180001F09AFEF8
:10464000034801F087FE0120FFF74CFF708F011037
:104650009844051010B50148FFF7E4FF808F011062
:10466000704710B5002802D00B684968984710BD04
:104670000100002007E083001B185B00501C08604D
:104680001078C01830380A681378303BDBB2092B39
:10469000F1D97047F0B5DE4657464E464546E0B57F
:1046A00083B093461F000C9B9A460D9C0E9B994627
:1046B0000F9B9B0703D0B8460F00060022E0019233
:1046C000A34688464E46B9460700B44207D2551C59
:1046D0004B4641462020B84701342A00F5E73D000B
:1046E0004F465C46019B9B46B1464646B84637005E
:1046F0002E0007E0013C551C5346185D4346390027
:10470000B0472A00002CF5D135003E0047460F9BEC
:104710009B0707D4100003B0F0BCBB46B246A946C5
:10472000A046F0BDB0464E46B9462F005D46531B2D
:10473000B342EFD2541C4B4641462020B8472200DA
:10474000F5E7F0B5CE46474680B585B09446984625
:104750000C9D0D9C0EAB1B789946109A119B129ED6
:10476000B7071CD4002B0CD0F7070AD54F46002FF3
:1047700002D10C37374204D0013B02E030272F55DD
:104780000134944201D21F2CF8D9F70707D59C4277
:1047900005D21F2C03D830272F550134F5E7F70633
:1047A00015D5770505D4002C03D0944224D09C4223
:1047B00022D00F9A102A2BD00F9A102A30D00F9A9D
:1047C000022A35D01F2C02D830222A5501341F2C42
:1047D00005D84A46002A31D02D222A5501340396A5
:1047E00002930194009543466246FFF753FF05B0DC
:1047F000C0BCB946B046F0BD621E012C06D00F9F6A
:10480000102F01D01400D4E7023CD2E71400D0E707
:10481000B206D1D41F2CCFD878222A550134D1E743
:10482000B206CCD51F2CCAD858222A550134C9E764
:104830001F2CC7D860322A550134C3E7720703D54D
:104840002B222A550134CAE73207C8D520222A551F
:104850000134C4E7F0B5DE4657464E464546E0B55E
:1048600093B081468A46089209931CAB10CB1B7803
:104870009B461E9D219B9846002C03D11023424647
:104880009A4390468023DB0046461E4042461A4229
:1048900012D0002C22D000260EE03033D9B2771C83
:1048A0000AAB99552900200000F0DCFFAC4216D37A
:1048B0001F2F14D83E0004002900200000F0D2FF72
:1048C000CBB2092BE9D94246920605D54121C91838
:1048D000C9B20A39C9B2E2E76121F8E727004346C5
:1048E0000693209B05931F9B049303955B460293BD
:1048F00001970AAB0093099B089A51464846FFF777
:1049000020FF13B0F0BCBB46B246A946A046F0BD9E
:10491000F0B5DE4657464E464546E0B595B00890A0
:1049200009910A920B931E9E1F9C20AB1B789B46FD
:10493000229B9946239D269B9A463300234303D10D
:10494000103352469A4392468023DB0057461F405D
:1049500052461A4219D0330023432DD0002714E0C9
:104960003033DAB27B1C98460CABDA554A462B0042
:104970003000210000F0B4FFA5421FD819D04346F3
:104980001F2B1BD8474606000C004A462B00300060
:10499000210000F0A5FFD3B2092BE1D952469206BF
:1049A00005D54122D218D2B20A3AD2B2DAE7612250
:1049B000F8E7B145E3D901E0002398465346069352
:1049C000259B0593249B04934B4603935B460293DC
:1049D000434601930CAB00930B9B0A9A09990898E4
:1049E000FFF7AFFE15B0F0BCBB46B246A946A046E5
:1049F000F0BD0000F0B5DE4657464E464546E0B5F0
:104A000091B083468A460C9298461A9C08941B9D46
:104A1000099522002B002000290001F0E4F900286C
:104A200000D0E5E001225242D74B2000290001F0DE
:104A3000D5F9002800D0DBE001225242D34B200000
:104A4000290001F0B5F9002800D0D1E000220023B0
:104A5000089E3000099D290001F0AAF9002800D025
:104A6000DDE008980999069007918023DB001E9AE3
:104A70001A400D921E9A1A4201D106231C930698E1
:104A8000079904000D000A000600024300D1D1E09E
:104A9000080D4005400DBE4CA44660440A03120BAD
:104AA000BC4B13431F0001F0B1F9BB4ABB4B01F0F3
:104AB00038F9BB4ABB4B01F015F904000D00002288
:104AC000B94B3000390001F008F9B84AB84B01F091
:104AD00028F902000B002000290001F003F901F081
:104AE000ADF9814601F092F904000D00B14AB24BD4
:104AF00001F017F90022B14B01F0F4F801F09EF932
:104B00000600AF4AAF4B2000290001F00AF904006B
:104B10000D00300001F07AF9AB4AAC4B01F001F91D
:104B200002000B002000290001F0D7F804000D005E
:104B300002000B0001F0F5F80A900B91A44BF3185A
:104B400000261F0522002B002000290001F0CAF8D2
:104B50000E900F9122002B0000208021C90501F04A
:104B6000BCF804000D0000229A4B0A980B9901F042
:104B7000BEF80022984B01F0B5F802000B000A982D
:104B80000B9901F0B4F80022944B01F0ABF802004D
:104B90000B000A980B9901F0AAF802000B00200004
:104BA000290001F09FF802000B000E980F9901F008
:104BB0009EF80022774B01F095F832003B0001F09F
:104BC000B0F806000F0004000D00069A079B01F0E4
:104BD00005F9002830D001235B429C46E1440022C5
:104BE0007D4B3000390001F082F804000D0023E015
:104BF0001E9B04931D9B03931C9B0293089A099B85
:104C00000092019343460C9A5146584600F0FCF836
:104C100011B0F0BCBB46B246A946A046F0BD002389
:104C2000002406930794069680231B069C46654441
:104C300007951AE7002399464B466333C62B1ED8C7
:104C400004261E9B1B0526D52B0023430FD0644A48
:104C5000644B0698079901F0B9F8002879D0002232
:104C6000614B0698079901F0A3F8002871D01C9BAE
:104C70004B4506DD4A46981A431E1C9303E0052661
:104C8000DFE700231C938023DB001E9A1A431E9249
:104C90000026002399461D9B9E4264D29F1B02233F
:104CA0001E9A1A400A921E9A134202D0002E00D079
:104CB00000274B46002B07D022002B0006980799AF
:104CC00001F015F806900791002200230898099931
:104CD00001F06EF8002848D1444B1E9A134004930B
:104CE00003971C9B0293069B079C009301944346E9
:104CF0000C9A5146584600F087F8002E00D187E7FD
:104D00001E9B9B063DD54525441C4346020051464B
:104D10002800D8474B46DA179B18534005220592C6
:104D2000013E0496002203920A3202924A46D00FB4
:104D3000019000934346220051465846FFF78AFDF2
:104D40000A9B002B00D163E702005F460C9E1D9D6D
:104D500054E01C9B002B9ED00D9B002B9BD01C9BDA
:104D6000013B1C9397E7002799E7069C079D2200CB
:104D7000290080200006844661440B0006920793B8
:104D8000AAE76525C0E7C046FFFFEF7FFFFFEFFF03
:104D900001FCFFFF0000F03FFB799F501344D33F1D
:104DA000B3C8608B288AC63F0000F83F61436F6339
:104DB000A787D23F71A379094F930A400000E03FD3
:104DC0001655B5BBB16B0240EF39FAFE422EE63FF5
:104DD000FF03000000002C400000244000001840A9
:104DE0002D431CEBE2361A3F80842E41FFF7FFFF74
:104DF000541C434651462020B8472200931BAB4227
:104E0000F6D3100004E7C046F0B5DE4657464E46DE
:104E10004546E0B595B00690079193469946209F88
:104E20001E9A1F9B1000190000F0DDFF002831D1F1
:104E300001225242BF4B1E981F9900F0B9FF002873
:104E400037D101225242BC4B1E981F9900F0C6FF79
:104E500000283DD10022B94B1E981F9900F0BEFFDB
:104E6000002850D10022B64B1E981F9900F0A0FFD9
:104E7000002848D1002200231E981F9900F098FFB7
:104E8000002850D100239846229B5B0500D4B6E051
:104E9000002458E0229B0393219B02930323019358
:104EA000A84B00934B465A4607990698FFF7F2FB2A
:104EB0000EE1229B0393219B029304230193A24BB7
:104EC00000934B465A4607990698FFF7E3FBFFE02D
:104ED0000423229A1A4022990B4210D09B4B002A9D
:104EE0000FD00422229903912199029101920093FB
:104EF0004B465A4607990698FFF7CCFBE8E0944BDF
:104F0000EDE70322EEE7229B0493219B0393029794
:104F10001E9B1F9C009301944B465A460799069886
:104F2000FFF768FDD4E01E9A1F9B0020002100F0CF
:104F3000D4FE1E901F9101239846A5E70CAB3022AA
:104F40001A55013F01341F2C01D8092FF6D81E989D
:104F50001F9900F073FF050000F058FF02000B00DE
:104F60001E981F9900F0B9FEFA007A4B9B181A6838
:104F70005B680A920B9300F0D4FE0890099100F050
:104F800081FF060000F03EFF02000B00089809991F
:104F900000F0A3FE0890099100226F4B00F01EFF65
:104FA00000282ED00136300000F02CFF02000B004C
:104FB0000A980B9900F002FF002801D00135002665
:104FC000002F2CD1280000F021FF02000B001E98BA
:104FD0001F9900F082FE06000F0000225E4B00F0D9
:104FE000E7FE002846D100225B4B3000390000F07C
:104FF000F5FE00283ED1EB073CD501353AE0062707
:1050000046E70022544B0898099900F0D1FE002889
:10501000D6D1002E01D0F307D2D50136D0E7AA466B
:105020001F2C11D8013F0A21300000F01BFC651C29
:1050300030310CAB19550A21300000F013FC092E59
:105040000ED906002C00EBE755461F2C0CD87B1E12
:10505000002F09D00CAA302111551F000134F4E7AC
:105060002B0055461C00F0E71F2C03D80CAB2E225A
:105070001A5501341F2C10D80A21280000F0CAFB51
:10508000661C30310CAB19550A21280000F0C2FB18
:10509000051E01D03400EDE734000323229A1340AB
:1050A000012B1CD01F2C06D84346002B32D00CAB52
:1050B0002D221A550134229B0393219B02930194C4
:1050C0000CAB00934B465A4607990698FFF7E2FA55
:1050D00015B0F0BCBB46B246A946A046F0BD219B28
:1050E000002B13D04346002B02D10C3313420FD0B8
:1050F000219B013B2193190003E00CAB30221A5590
:1051000001348C42CED21F2CF7D9CBE72199F8E796
:105110002199F6E7229B5B0704D50CAB2B221A558D
:105120000134C8E7229B1B07C5D50CAB20221A55BA
:105130000134C0E7FFFFEFFFFFFFEF7F65CDCD41FB
:1051400065CDCDC1AC8F0110B08F0110A48F0110BF
:10515000A08F0110989101100000E03FF0B5DE46ED
:1051600057464E464546E0B593B082468B4690463C
:105170001193002900D1EBE200275546119B1878C6
:10518000002800D1E7E2252809D07C1C43463A00DC
:105190005946A847119B013311932700EEE70133CD
:1051A00011930024119A11780B00203BD8B21028DB
:1051B00003D88300D048C3589F460B00303BDBB276
:1051C000092B2CD92A292FD000230A93119B1A7856
:1051D0002E2A39D000239A46119A1378683BD9B207
:1051E000122976D88B00C549CB589F4601231C4312
:1051F00001321192D6E702231C4301321192D1E70A
:1052000004231C4301321192CCE708231C430132D2
:105210001192C7E710231C4301321192C2E711A873
:10522000FFF726FA0A90D1E71C9B1A1D1C921868FA
:10523000002804DB0A90119B01331193C6E7022377
:105240001C4343420A93F6E78022D20014435A1CBF
:1052500011925A781300303BDBB2092B04D92A2A69
:1052600007D000239A46B7E711A8FFF701FA824654
:10527000B2E71C9B1A1D1C921868002804DB8246AA
:10528000119B01331193A7E70020F8E780235B000F
:105290002343511C119152786C2A01D01C0018E054
:1052A000C0239B001C430131119112E08023234352
:1052B000511C11915278682A01D01C0009E0C023CA
:1052C0001C430131119104E080235B001C43013237
:1052D0001192119B18780300253BDAB2532A00D9AA
:1052E0002CE29300864AD3589F4680239B001C43A0
:1052F00001321192EDE780235B001C4301321192D1
:10530000E7E7782809D0582838D06F2838D06228A5
:1053100038D010239C430A2600E01026582833D0AA
:10532000692803D0642801D00C229443630501D579
:105330000122944369282AD0642828D0A30500D5E7
:105340009FE0E30500D5B8E0630600D4CAE01C9AEC
:10535000111D1C911168FF220A4005940A9B0493B9
:1053600053460393029600230193009243463A006A
:1053700059462800FFF76EFA070027E01026CDE710
:105380000826CBE70226C9E720221443C8E7A30575
:1053900020D4E30550D4630666D51C9A111D1C91D8
:1053A0001168FF220A40D317D118594005940A9B6F
:1053B0000493534603930296D20F01920091434601
:1053C0003A0059462800FFF745FA0700119B0133C0
:1053D0001193D3E61C9BDA1D07218A431100083183
:1053E0001C91116853689C46DB170C930D930C9A23
:1053F0000D9B100048400E90624653400F930E984C
:105400000F990C9A0D9B801A99410E900F91089458
:105410000A9B07935346069304960023059363461D
:10542000DA0F02920090019143463A005946280053
:10543000FFF76EFA0700C9E71C9A111D1C9112684C
:10544000D317D118594005940A9B049353460393EC
:105450000296D20F0192009143463A005946280025
:10546000FFF7F8F90700B1E7230605D51C9A111DCF
:105470001C910023D25E96E71C9A111D1C911268A4
:1054800091E71C9BDA1D07218A43110008311C910A
:1054900008940A9B079353460693049600230593AA
:1054A0000293136854680093019443463A005946A6
:1054B0002800FFF72DFA070088E71C9A111D1C91A0
:1054C00005940A9B04935346039302960023019389
:1054D0001368009343463A0059462800FFF7BAF98B
:1054E000070073E723060DD51C9A111D1C91126845
:1054F0001204120C31E7C046B88F0110FC8F011066
:10550000489001101C9A111D1C91126825E746282D
:105510001AD01C9B0733072293431A0008321C92AF
:1055200004940A9A0392524602925C681B680093A4
:10553000019443463A0059462800FFF765FC0700EE
:10554000119B0133119319E620231C43E1E76728DF
:1055500001D0472802D180231B011C43452801D0DC
:10556000472801D120231C431C9B07330722934368
:105570001A0008321C9204940A9A0392524602922C
:105580005C681B680093019443463A005946280022
:10559000FFF730FA0700119B01331193EEE5022368
:1055A0001A002240924623421FD001241C9B1A1D40
:1055B0001C927A1C9146187843463A005946A847EF
:1055C0005346002B16D1119B013311934F46D5E55D
:1055D000561C434659462020B847230032005C1C25
:1055E0009D42F5D83D001700E0E701233A002F0067
:1055F0000A9DF4E74A46A9460A9D06E0571C434621
:1056000059462020C84734003A00661CA542F5D808
:105610004D469146D7E71C9B1A1D1C921B68994664
:105620005346002B00D1013B4E4601E001361300EA
:105630003278002A02D05A1E002BF7D14B46F21ABC
:1056400010928023DB0026001E401C4203D05245EE
:1056500001D95346109302231A0022400B92234291
:1056600005D03A0037004C46A946554620E03A009E
:10567000109B5F46B3462E0006E0551C434639009A
:105680002020B04723002A005C1C0A999942F4D8D4
:1056900035005E46BB46109437004C46A946554639
:1056A00006E01D000134561C43465946C8473200E7
:1056B0002078002804D0002FF4D06B1E002DF0D1EC
:1056C00017004D460B9B002B03D1119B0133119307
:1056D00054E50A9F109B06E0561C4346594620207D
:1056E000A847230032005C1C9F42F5D81700ECE766
:1056F00021231C431C9B1A1D1C921B6800930594BC
:105700000823049353460393102302930023019329
:1057100043463A0059462800FFF79CF80700119BC2
:10572000013311932AE57C1C43463A005946252053
:10573000A847119B0133119327001FE57C1C4346AA
:105740003A005946A847119B01331193270015E5EC
:105750000A4B9A4610E5AA46474502D343465A1ECD
:1057600000E03A00434659460020D047380013B0C5
:10577000F0BCBB46B246A946A046F0BD614600104B
:1057800000B585B0029003910121009313004A42B5
:1057900002A90248FFF7E2FC05B000BD6346001015
:1057A00001480421014B1847600E0020DD5700100E
:1057B000014B9B6818470000600E002010B50100E7
:1057C00018231B8814221088984710BD10B50100BB
:1057D00018231B8816221088984710BDF0B5C646BE
:1057E00000B507000E0000250123984600E00135B2
:1057F000B5420AD2AC003C192068FFF7DFFF2060F9
:105800000028F4D100239846F1E7404680BCB84612
:10581000F0BD0000124A936F9B0815D29066D166C6
:10582000002905D0FFE7FFE7FFE7516F106F7047D2
:1058300004B580210906C2175140002800D0C84392
:1058400012F0FAFA002104BDF0B5146E556E576FD0
:10585000166FFFF7E3FF1466556657671667F0BDCE
:10586000000000D0114A936F9B0813D21066516656
:10587000002905D0FFE7FFE7FFE7516F106F704782
:1058800004B5002801D00020C04312F0D5FA002151
:1058900004BDC046F0B5146E556E576F166FFFF716
:1058A000E5FF1466556657671667F0BD000000D027
:1058B00094464A4A926F9208624601D228E0C04656
:1058C000F0B5464E346E756E776F366F00F020F887
:1058D0009446424A14665566576716676246F0BD9D
:1058E00094463E4A926F9208624601D254E0C04606
:1058F000F0B53A4E346E756E776F366F00F04CF837
:105900009446364A14665566576716676246F0BD78
:10591000002B24DB11D000293EDA00B5C9434042F8
:1059200000D1013100F038F8C943404200D10131C3
:10593000DB43524200D1013300BD002AEBD10028E5
:1059400001D1002905D00020C90FC90701D1C043EA
:10595000410800B512F048FA0022002300BD00B54E
:1059600000290ADBDB43524200D1013300F014F876
:10597000C943404200D1013100BDC943404200D17A
:105980000131DB43524200D1013300F005F8DB4323
:10599000524200D1013300BD002923D1002B18D180
:1059A000002A0CD0BC460D4F38667A6600210023D1
:1059B000FFE7FFE7FFE77A6F386F67467047002819
:1059C00001D00748010000B512F00EFA00220023B2
:1059D00000BD02000B00002000217047000000D035
:1059E000FFFFFFFF002B00D0BFE0130C28D1002ADF
:1059F000E7D080B4114F39667A66FFE7FFE730B42D
:105A0000040C7B6F396F1B0423433B667A66FFE708
:105A1000FFE7FFE7C04684B27B6F3D6F1B04234363
:105A20003B667A66FFE7FFE7C04600232C042D0C97
:105A30007A6F386F00196941B0BC7047000000D020
:105A4000F0B594460025140E01D112020835140F4A
:105A500001D112010435940F01D192000235D40F07
:105A600001D152000135D40B0134254F7C66254C01
:105A70003C660E0C93B2FFE7FFE7FFE73C6F66431F
:105A8000360C7703BE467343DF0B5B04C01AB94183
:105A9000130C7343DB18C91ACE086643360CB644A0
:105AA00093B273431F0F1B01C01AB941130C734308
:105AB0001F0B1B05C01AB941860D8F023E4366437A
:105AC000360C092D24DB520A7243801A7703460AEA
:105AD0006643360C16235B1BDE40DF40BF1964466D
